:020000040800F2
:1000000000500020415000087511000877110008C9
:10001000791100087B1100087D1100080000000024
:100020000000000000000000000000007F11000838
:1000300081110008000000008311000885110008EC
:10004000895000088950000889500008895000082C
:10005000895000088950000889500008895000081C
:10006000895000088950000889500008895000080C
:1000700089500008895000088950000889500008FC
:1000800089500008895000088950000889500008EC
:100090008D11000889500008895000088950000817
:1000A00089500008895000088950000889500008CC
:1000B00089500008895000088950000889500008BC
:1000C00089500008895000088950000889500008AC
:1000D000895000088950000889500008895000089C
:1000E000895000088950000889500008000000006D
:1000F0000000000000000000000000000000000000
:0C01000000000000000000005FF808F1A3
:10010C00044B05481B1A062B02D9044B03B11847A4
:10011C00704700BFE3010020E00100200000000058
:10012C0005490648091A891001EBD171491002D012
:10013C00034B03B118477047E0010020E001002099
:10014C000000000010B5064C237843B9FFF7D8FF28
:10015C00044B13B10448AFF300800123237010BD8E
:10016C00E0010020000000008C50000808B5084B8E
:10017C001BB108490848AFF300800848036813B95D
:10018C00BDE80840CCE7064B002BF9D09847F7E7C1
:10019C0000000000E40100208C500008E001002069
:1001AC000000000070B50F4E0F4D761BB61018BF37
:1001BC00002405D0013455F8043B9847A642F9D1E8
:1001CC000A4E0B4D04F05CFF761BB61018BF0024D2
:1001DC0006D0013455F8043B9847A642F9D170BDBE
:1001EC0070BD00BF8C5100088C5100089051000864
:1001FC008C51000870B4860746D0541E002A41D09A
:10020C00CAB2034602E014F1FF343BD303F8012BCE
:10021C009D07F8D1032C2ED9CDB245EA05250F2C1C
:10022C0045EA054519D9264603F11002103E0F2E5A
:10023C0042F8105C42F80C5C42F8085C42F8045C32
:10024C0002F11002F2D8A4F1100222F00F0204F015
:10025C000F041032032C13440DD91E462246043AC7
:10026C00032A46F8045BFAD8221F22F00302043258
:10027C00134404F003042CB1C9B21C4403F8011B51
:10028C009C42FBD170BC704714460346C2E700BFCA
:10029C000CB40B46F0B56FF000454FF402774FF6F7
:1002AC00FF769DB022AC54F8042B0293069302A95E
:1002BC0023460194ADF8147004950795ADF81660BB
:1002CC0000F03CF90022029B1A701DB0BDE8F04012
:1002DC0002B070470EB40146F0B56FF000454FF414
:1002EC0002774FF6FF769CB021AC54F8042B0B4BE5
:1002FC0002910691186802A923460194ADF8147076
:10030C0004950795ADF8166000F018F90022029BD1
:10031C001A701CB0BDE8F04003B07047000000201C
:10032C0020F0030110F00300C0F1000051F8043B71
:10033C0000F1040C4FEACC0C6FF000021CBF22FA47
:10034C000CF213434FF0010C4CEA0C2C4CEA0C4C05
:10035C00A3EB0C0222EA030212EACC1204BF51F8FE
:10036C00043B0430F4D0C2F1000102EA0102B2FAFB
:10037C0082F2C2F11F0200EBD20070472DE9F04768
:10038C008E680C469E421D46174628D880468889A2
:10039C0010F4906F32D04E692368096906EB46065B
:1003AC00A3EB010906EBD6766B1C76104B44B342DB
:1003BC00324684BF1E463246430522D5114640467E
:1003CC0000F02EFD824680B34A46216900F006FCFF
:1003DC00A38923F4906343F08003A38116E01E46A7
:1003EC0008682A46394600F06FFCA2682368961B01
:1003FC002B44A66023600020BDE8F08708683546D2
:10040C00EFE7404600F06AFD824650B1A6EB0903C7
:10041C000AEB09006661C4F810A02060A3602E46A8
:10042C00DFE72169404600F0B3FC0C23C8F800302C
:10043C00A3894FF0FF3043F04003A381BDE8F08760
:10044C002DE9F04F936883B09046002B70D0824614
:10045C000C4617688D68086842E0A38913F4906F06
:10046C002ED06569216905EB4505A0EB010B05EB69
:10047C00D5750BF101006D103044A8422A4684BF9B
:10048C0005462A465B0538D51146504600F0C8FC97
:10049C0000283CD05A462169019000F09FFBA289AC
:1004AC00019B22F4906242F08002A281A5EB0B0228
:1004BC0003EB0B006561B346354623612060A260F7
:1004CC005A46494600F000FCD8F80830A26820686B
:1004DC00551B58449E1BA5602060C8F808603EB3AD
:1004EC007E683B460837002EFAD0AE42D3F8009017
:1004FC00AB46B2D23546B346E2E7504600F0EEFCCE
:10050C0003460028D2D12169504600F041FC0C234F
:10051C0000224FF0FF30CAF80030A38943F04003AB
:10052C00A381C8F80820C8F8042003B0BDE8F08FF8
:10053C000020C8F8040003B0BDE8F08F2DE9F04F9F
:10054C000F4689899DB00C0691460393804603D5CE
:10055C003B69002B00F0FC803023002020218DF81B
:10056C002A3099F800300125814C09908DF829101A
:10057C00002B00F09180252BCA4603D119E0252BC6
:10058C0000F093801AF8013F002BF8D1BAEB090B5D
:10059C0000F082804A465B4639464046FFF7EEFE45
:1005AC00013079D0099B9AF800205B440993002A0A
:1005BC0072D000234FF0FF320AF1010A0493079323
:1005CC0006938DF853301A93059205E0049B001B9B
:1005DC0005FA00F0184304909AF800100522204602
:1005EC0000F0B6FAD1460AF1010A0028EED1049BBC
:1005FC00D80644BF20228DF85320190748BF2B2260
:10060C0099F8001048BF8DF853202A2971D0A1F118
:10061C003002092A0BD8079B19F8011F03EB83033F
:10062C0002EB4303A1F13002092AF5D907932E29D5
:10063C0046D0DFF84CA10322504600F089FA48B1AD
:10064C004022049BA0EB0A0002FA00F0034309F1DC
:10065C000109049399F800300622194645488DF893
:10066C00283009F1010900F073FA00284DD0424BF3
:10067C00FBB103AB00933A46404B04A94046AFF3A1
:10068C0000800646721C07D0099B3344099399F8E5
:10069C000030002B7FF46FAFBB895B064CBF4FF073
:1006AC00FF3009981DB0BDE8F08FBAEB090B80D074
:1006BC0070E7039B073323F0070308330393E3E747
:1006CC0099F8011009F101002A2928D00023A1F181
:1006DC003002092A05938146ABD819F8011F03EBA8
:1006EC00830302EB4303A1F13002092AF5D90593E8
:1006FC009FE7039A116804320029039222DB0791C9
:10070C0099F8011009F1010991E703AB00933A46FE
:10071C001A4B04A9404600F0CDF80646B2E7039BFD
:10072C0009F102001A680433002A0393B8BF4FF092
:10073C00FF330592AEBF99F8021099F80210059399
:10074C00814676E7494243F0020307910493D7E7C9
:10075C00402100F065FB3860386110B140237B61AB
:10076C00FAE60C234FF0FF30C8F800309AE700BFD0
:10077C00505100085C51000800000000890300087B
:10078C00585100082DE9F0470C460969A5689146B7
:10079C008D42B8BF0D46156094F8431006461F46AF
:1007AC00DDF8208011B16A1CC9F800202368990675
:1007BC005DD5D9F800200232C9F80020236813F067
:1007CC00060F19461DD1E1688A1A002AD8BF1946AE
:1007DC0017DD002504F1190A05E0E368D9F80020BB
:1007EC009B1AAB420CDD0123524639463046C047BA
:1007FC00013005F10105F0D14FF0FF30BDE8F08775
:10080C00216894F84330003318BF01238A060AD5B7
:10081C003021E21882F8431094F845105A1C2244F7
:10082C0082F84310023304F1430239463046C04784
:10083C000130E1D0236803F00603042B29D0A36810
:10084C0022699342C8BF4FF0000930DD9B1A9944CE
:10085C0000251A3401E04D4529D0012322463946A2
:10086C003046C047013005F10105F4D1C4E713F05F
:10087C00060F08D1E168D9F800208A1A002AD8BFDF
:10088C001946A6DCBDE794F84330003318BF0123AA
:10089C00C9E7D9F80010E068A3682269A0EB010948
:1008AC00934229EAE979D1DCB9F1000FD0D10020CB
:1008BC00BDE8F0872DE9F0430C46097E85B06E2922
:1008CC0006461746984604F1430C0C9855D00FD8A1
:1008DC00632900F0198100F2D48000295CD05829DA
:1008EC0040F0E68084F845102268DFF85CE213E003
:1008FC00732900F0FB8000F289806F2900F0E28000
:10090C00702940F0D580226842F0200222607823C2
:10091C00DFF838E284F845300368150603F104016A
:10092C0000F1FD8055064BBF1B881B680160016000
:10093C00D00744BF42F020022260002B40F093808D
:10094C001021226822F020022260002284F8432029
:10095C0060680028A060C0F28B80226822F004023C
:10096C002260002B66D1002840F08480654608295F
:10097C006ED0ACEB0503236111E023681A0600F17D
:10098C00D18013F0400F0368626903F10401016028
:10099C001B6814BF1A801A60002365462361CDF8CA
:1009AC0000803B4603AA21463046FFF7EBFE0130A0
:1009BC0021D02A46236939463046C04701301AD027
:1009CC002368E06813F0020F039B19D0C21A002AA7
:1009DC0016DD002504F1190904E0E068039BC21A36
:1009EC00AA420DDD01234A4639463046C047013044
:1009FC0005F10105F1D14FF0FF3005B0BDE8F083F2
:100A0C009842B8BF184605B0BDE8F083752959D097
:100A1C0078294DD122687AE72D2061685B42002944
:100A2C0084F84300A16020DB0A2122F00402DFF8E5
:100A3C0018E122606546B3FBF1F201FB12331EF89C
:100A4C000300134605F8010D002AF4D1082990D1B2
:100A5C002368D9078DD5626823699A4289DC3023D3
:100A6C00013D2B7085E710216FE70A21DFF8D8E0F4
:100A7C00002BDFD19EF8003004F1420584F842309F
:100A8C0075E7642901D0692912D12268036815061B
:100A9C0003F1040152D455064BBFB3F900301B6867
:100AAC0001600160002BB7DB0A21DFF89CE04FE707
:100ABC00012384F84210236104F14205002384F8D9
:100ACC0043306CE723681A0633D413F0400F0368E5
:100ADC0003F1040215BF1B881B68026002606F29BA
:100AEC0014BF0A210821DFF860E02EE70368626872
:100AFC00191D01601D680021284600F029F800B37B
:100B0C00401B60602061D9E70122036804F14205B3
:100B1C00191D1B68016084F842302261CEE7016028
:100B2C001B6805E703686269191D01601B681A6080
:100B3C0032E703681A1D02601B68D0E701601B686E
:100B4C00B0E76068DEE700BF645100087851000828
:100B5C00830770B4CDB23DD0541E0AB30378AB42B8
:100B6C001FD0431C05E014F1FF3419D30278AA42BC
:100B7C0017D013F0030F184603F10103F3D1032C24
:100B8C0011D84CB30378AB420BD00444431C02E0A5
:100B9C000278AA4205D09C42184603F10103F7D112
:100BAC00002070BC7047090289B2294341EA014117
:100BBC00036806464B40A3F1013222EA030313F00B
:100BCC00803F00F1040003D1043C032CF0D8D8E79B
:100BDC003046D7E71446D2E72046E2E7844641EA9E
:100BEC00000313F0030349D1403A23D30B6803608D
:100BFC004B6843608B688360CB68C3600B6903618F
:100C0C004B6943618B698361CB69C3610B6A036276
:100C1C004B6A43628B6A8362CB6AC3620B6B03635E
:100C2C004B6B43638B6B8363CB6BC3634030403143
:100C3C00403ADBD230320BD30B6803604B68436015
:100C4C008B688360CB68C36010301031103AF3D2DC
:100C5C000C3205D351F8043B40F8043B043AF9D26A
:100C6C00043208D0D2071CBF11F8013B00F8013B3D
:100C7C0001D30B8803806046704700BF082A13D34A
:100C8C008B07B1D010F00303AED0C3F10403D21A1A
:100C9C00DB071CBF11F8013B00F8013BA4D331F872
:100CAC00023B20F8023B9FE7043AD9D3013A11F8F2
:100CBC00013B00F8013BF9D20B7803704B78437081
:100CCC008B788370604670478842F0B50DD98B18CD
:100CDC0098420AD28418002A51D0224613F8014DAA
:100CEC00994202F8014DF9D1F0BD0F2A48D941EAD9
:100CFC0000039B0746D1154600F1100401F11003C7
:100D0C0053F8106C103D44F8106C53F80C6C0F2D0C
:100D1C0044F80C6C53F8086C04F1100444F8186C8B
:100D2C0053F8046C03F1100344F8146CE8D8A2F1E6
:100D3C00100323F00F0302F00F0E1033BEF1030F5C
:100D4C001944034421D90E4674461D1F56F8047BE2
:100D5C00043C032C45F8047FF8D8AEF1040424F0CD
:100D6C00030404342144234402F0030262B1013B26
:100D7C000A4411F8014B8A4203F8014FF9D1F0BD36
:100D8C000346F3E70346F2E7F0BD7246EEE700BF19
:100D9C0091B151F8043C0439002BB8BFC9181F4B52
:100DAC001A68FAB18A4230B40AD908680C18A242FF
:100DBC0026D04A60196030BC70478B4203D81A4663
:100DCC005368002BF9D1146815198D420DD006D833
:100DDC0008680C189C4219D04B605160EBE70C234F
:100DEC000360E8E74A601960704709680C44111900
:100DFC0099421460DFD10ACB0C4414605360DAE7DB
:100E0C0014685268204481E80500D3E71C685B68CD
:100E1C00204481E809005160CDE700BFFC010020AF
:100E2C0070B5CC1C24F0030408340C2C38BF0C24F3
:100E3C00002C06463BDBA14239D8274D296851B11D
:100E4C000B681B1B04D436E013681B1B1AD5114608
:100E5C004A68002AF8D16968002937D02146304603
:100E6C0000F064F8431C22D0C51C25F00305A842F1
:100E7C0005D0291A304600F059F8013017D02A460F
:100E8C002C6004E00B2B0DD913601A44146002F192
:100E9C000B0020F00700131DC31A02D05942D15089
:100EAC0070BD70BD8A420ED053684B60EFE70C23C7
:100EBC000020336070BD0B2B03D80A464B682B60A7
:100ECC00E5E70A46E0E70B460A46F8E7304600F04D
:100EDC002DF86860C2E700BFFC010020F8B514468D
:100EEC00F9B1C2B106460D4600F032F8844201D881
:100EFC002846F8BD21463046FFF792FF074670B1F1
:100F0C0022462946FFF76AFE29463D463046FFF742
:100F1C003FFF2846F8BDFFF73BFF2546E8E70546AF
:100F2C00E6E71146BDE8F840FFF77ABF38B5002375
:100F3C00064C05460846236000F014F8431C00D00C
:100F4C0038BD2368002BFBD02B6038BDB4130020B8
:100F5C0051F8040C0028A0F10400BCBF0B58C018B9
:100F6C00704700BF044A05491368002B08BF0B46A5
:100F7C00184410601846704704020020B813002073
:100F8C00044B586A83B200B2002800DB7047584209
:100F9C0000B2FBE7002C01400022014B5A62704763
:100FAC00002C014010B5FFF7EBFF0446FFF7F4FFF0
:100FBC00204610BD70B594B0282200210DEB020024
:100FCC00FFF718F9002405940694079408940994E3
:100FDC00019402940394049405230A934FF48033F0
:100FEC000B9301250D950E950226119612934FF435
:100FFC00801313930AA800F041FA0F230593069669
:10100C0007944FF4806308930994294605A800F0CF
:10101C0073FC132301934FF4807302934FF48043BA
:10102C0003934FF48003049301A800F02FFD14B038
:10103C0070BD000010B5ADF57A7D264B6C460FCB1C
:10104C0007C4238000F0CCF9FFF7B4FF00F050F890
:10105C0001F01AF800F0BCFF01F0D8F801F072F8BA
:10106C0001224FF480711C4800F010FF1B4802F065
:10107C00FDFD3C211A4800F047F9002416E0174802
:10108C0002F014FDFFF78EFF80B2044424B2224616
:10109C0014496846FFF71EF96846FFF741F981B21B
:1010AC00684601F093F9642000F0BEF94FF400514A
:1010BC000D4800F0F1FE4FF47A71084802F03EFC46
:1010CC000028DCD06846FFF72BF981B2684601F0A6
:1010DC007DF9D7E7CC50000800080140300400200F
:1010EC0074040020DC500008001001407047000020
:1010FC0030B589B000240494059406940794184BD9
:10110C009A6942F010029A619A6902F010020192F7
:10111C00019A9A6942F020029A619A6902F02002BF
:10112C000292029A9A6942F004029A619B6903F056
:10113C0004030393039B0B4D22464FF400512846A6
:10114C0000F0A4FE4FF4005304930123059306947E
:10115C000223079304A9284600F0A0FD09B030BD76
:10116C0000100240001001407047FEE7FEE7FEE76A
:10117C00FEE770477047704708B500F043F908BDAB
:10118C0008B5024801F061FD08BD00BF4811002000
:10119C0082B00E4B9A6942F001029A619A6902F090
:1011AC0001020092009ADA6942F08052DA61DB693E
:1011BC0003F080530193019B054A536823F0E063CD
:1011CC0043F08063536002B0704700BF00100240D0
:1011DC000000014003681C4A904227D0B0F1804FB8
:1011EC0024D0A2F59432904220D002F58062904235
:1011FC001CD0154A90421ED0B0F1804F1BD0A2F5E6
:10120C009432904217D002F58062904213D023F0B2
:10121C0080034A69134303608B68C3620B68836263
:10122C00094B98420CD001234361704723F07003A3
:10123C004A681343DDE723F44073CA681343E6E7B7
:10124C000B690363EFE700BF002C0140002849D075
:10125C00F8B505460C4690F83D30002B3DD00223E6
:10126C0085F83D30294651F8042B936823F48043CC
:10127C0023F0070393602868FFF7ACFF28688668A3
:10128C008369026A21680E4323F4407323F003033D
:10129C00A168A76941EA07210B4323F47C4323F09F
:1012AC00FC03E168E76941EA07210B432769216ADE
:1012BC00090341EA07110B4322F0220261686469B9
:1012CC0041EA04110A43866029688B612B681A6213
:1012DC00012385F83D300020F8BD80F83C3000F04B
:1012EC0065FFBCE70120704710B401F01F0101231A
:1012FC0003FA01F4036A23EA04030362036A8A40D3
:10130C001343036210BC704710B5044661B1042945
:10131C0016D0012200210068FFF7E6FF012204210C
:10132C002068FFF7E1FF04E0012200210068FFF7CD
:10133C00DBFF2268136843F001031360002010BD2B
:10134C00012204210068FFF7CFFFF2E790F83C3050
:10135C00012B1CD070B4012580F83C50022380F87E
:10136C003D3004686268A36822F070020E68324354
:10137C0023F0800349680B4362600268936080F835
:10138C003D50002380F83C30184670BC704702205A
:10139C007047000010B504460E4B18784FF47A7362
:1013AC00B3FBF0F30C4A1068B0FBF3F000F0CEFD89
:1013BC0068B90F2C01D9012010BD002221464FF035
:1013CC00FF3000F083FD054B1C60002010BD012098
:1013DC0010BD00BF640000206C00002068000020DD
:1013EC0008B5074A136843F010031360032000F09C
:1013FC005BFD0020FFF7CEFFFFF7CAFE002008BD03
:10140C0000200240034A1168034B1B780B44136005
:10141C00704700BF2C04002064000020014B1868AA
:10142C00704700BF2C04002038B50446FFF7F6FFC8
:10143C000546B4F1FF3F02D0044B1B781C44FFF768
:10144C00EDFF401B8442FAD838BD00BF6400002079
:10145C0082B0084B1B68084AA2FB03235B0A00FB03
:10146C0003F0019000BF019B5A1E0192002BF9D191
:10147C0002B070476C000020D34D6210002800F0C1
:10148C00F58170B582B00446036813F0010F3DD0AE
:10149C00AB4B5B6803F00C03042B2ED0A84B5B68A2
:1014AC0003F00C03082B23D06368B3F5803F51D0B5
:1014BC00002B55D103F1804303F504331A6822F451
:1014CC0080321A601A6822F480221A606368002B3A
:1014DC0060D0FFF7A3FF0546994B1B6813F4003F40
:1014EC0014D1FFF79BFF401B6428F5D90320C2E100
:1014FC00934B5B6813F4803FD6D0914B1B6813F46D
:10150C00003F03D06368002B00F0B281236813F016
:10151C00020F65D08A4B5B6813F00C0F4ED0884BD2
:10152C005B6803F00C03082B43D02369002B79D0A4
:10153C000122844B1A60FFF771FF0546804B1B6834
:10154C0013F0020F65D1FFF769FF401B0228F5D994
:10155C00032090E17A4A136843F480331360B5E7B3
:10156C00B3F5A02F09D0764B1A6822F480321A609A
:10157C001A6822F480221A60A8E703F18043A3F5CD
:10158C003C331A6842F480221A601A6842F48032A2
:10159C001A609BE7FFF742FF0546694B1B6813F483
:1015AC00003FB3D0FFF73AFF401B6428F5D9032066
:1015BC0061E1634B5B6813F4803FB6D1604B1B68F1
:1015CC0013F0020F04D02369012B01D0012052E14A
:1015DC005B4A136823F0F803616943EAC1031360A3
:1015EC00236813F0080F32D0A369002B6ED00122B0
:1015FC00554B1A60FFF712FF0546514B5B6A13F00F
:10160C00020F21D1FFF70AFF401B0228F5D9032056
:10161C0031E14B4A136823F0F803616943EAC103D3
:10162C001360DDE70022474B1A60FFF7F7FE054613
:10163C00434B1B6813F0020FD2D0FFF7EFFE401B99
:10164C000228F5D9032016E10120FFF701FF2368DA
:10165C0013F0040F00F09880394BDB6913F0805FB6
:10166C0046D1374BDA6942F08052DA61DB6903F01C
:10167C0080530193019B0125344B1B6813F4807F2D
:10168C0038D0E368012B49D0002B4DD103F18043B6
:10169C0003F504331A6A22F001021A621A6A22F064
:1016AC0004021A62E368002B5CD0FFF7B7FE064613
:1016BC00234B1B6A13F0020F65D1FFF7AFFE801BA3
:1016CC0041F288339842F3D90320D4E000221E4B18
:1016DC001A60FFF7A3FE0546194B5B6A13F0020F65
:1016EC00B5D0FFF79BFE401B0228F5D90320C2E0C2
:1016FC000025C1E7154A136843F480731360FFF7A4
:10170C008DFE0646114B1B6813F4807FB9D1FFF791
:10171C0085FE801B6428F5D90320ACE0084A136AC7
:10172C0043F001031362BDE7052B11D0044B1A6A79
:10173C0022F001021A621A6A22F004021A62B1E75C
:10174C0000100240000042428004424200700040FF
:10175C004C4B1A6A42F004021A621A6A42F00102F5
:10176C001A629FE7FFF75AFE0646464B1B6A13F0B8
:10177C00020F08D0FFF752FE801B41F288339842CB
:10178C00F3D9032077E0E5B9E369002B72D03D4A29
:10179C00526802F00C02082A56D0022B17D00022F5
:1017AC00394B1A60FFF73AFE0446364B1B6813F0B0
:1017BC00007F47D0FFF732FE001B0228F5D903202B
:1017CC0059E0304AD36923F08053D361DCE700221F
:1017DC002D4B1A60FFF722FE05462A4B1B6813F0AF
:1017EC00007F06D0FFF71AFE401B0228F5D9032014
:1017FC0041E0236AB3F5803F1AD022494B6823F4A9
:10180C007413226A606A024313434B6001221E4B1D
:10181C001A60FFF703FE04461A4B1B6813F0007F97
:10182C000ED1FFF7FBFD001B0228F5D9032022E0A7
:10183C00144A536823F40033A1680B435360DCE76C
:10184C00002018E0002016E0012B16D00D4B5B6831
:10185C0003F48031226A914201D001200BE003F4A1
:10186C007013626A93420AD0012004E00120704791
:10187C00012000E0002002B070BD0120FBE7002039
:10188C00F9E700BF001002406000424210B586B07C
:10189C00154C94E80F000DF1180E0EE90F00238A79
:1018AC00ADF80430114B5B6803F00C02082A18D118
:1018BC00C3F38342724412F8102C13F4803F03D10B
:1018CC000B4800FB02F00DE0084B5B68C3F3404390
:1018DC00734413F8143C074800FB02F0B0FBF3F020
:1018EC0000E0044806B010BDA450000800100240EF
:1018FC0000093D0000127A00002800F0A38070B5AA
:10190C000446524B1B6803F007038B420CD24F4A20
:10191C00136823F007030B431360136803F00703EA
:10192C00994201D0012070BD236813F0020F17D02B
:10193C0013F0040F04D0464A536843F4E063536039
:10194C00236813F0080F04D0414A536843F46053E2
:10195C0053603F4A536823F0F003A068034353607D
:10196C000D46236813F0010F31D06368012B20D092
:10197C00022B25D0364A126812F0020F64D034497B
:10198C004A6822F0030213434B60FFF747FD0646FB
:10199C002F4B5B6803F00C036268B3EB820F16D01D
:1019AC00FFF73CFD801B41F288339842F0D90320AD
:1019BC0070BD274A126812F4003FE0D1012070BDBF
:1019CC00234A126812F0007FD9D1012070BD1F4B41
:1019DC001B6803F007039D420CD21C4A136823F0CA
:1019EC0007032B431360136803F007039D4201D0D8
:1019FC00012070BD236813F0040F06D0144A5368FD
:101A0C0023F4E063E1680B435360236813F0080F81
:101A1C0007D00F4A536823F46053216943EAC1038A
:101A2C005360FFF733FF0A4B5B68C3F30313094A98
:101A3C00D35CD840084B1860084B1868FFF7AAFC19
:101A4C00002070BD01207047012070BD00200240B5
:101A5C0000100240EC5000086C00002068000020D0
:101A6C00014B1868704700BF6C00002008B5FFF7E9
:101A7C00F7FF044B5B68C3F3C223034AD35CD84023
:101A8C0008BD00BF00100240FC50000870B582B0C9
:101A9C000446036813F0010F34D03E4BDB6913F09E
:101AAC00805F48D13B4BDA6942F08052DA61DB69E6
:101ABC0003F080530193019B0125374B1B6813F4F2
:101ACC00807F3AD0334B1B6A13F4407311D0626899
:101ADC0002F4407293420CD02E4A136A23F44070E5
:101AEC002E4901260E6000260E60106213F0010FC5
:101AFC0037D1284A136A23F4407361680B4313628D
:101B0C00002D3FD1236813F0020F06D0214A5368F1
:101B1C0023F44043A1680B435360236813F0100F68
:101B2C0035D01C4A536823F48003E1680B4353609F
:101B3C00002002B070BD0025BFE7174A136843F4BC
:101B4C0080731360FFF76AFC0646134B1B6813F493
:101B5C00807FB7D1FFF762FC801B6428F5D9032086
:101B6C00E7E7FFF75BFC06460A4B1B6A13F0020F14
:101B7C00BFD1FFF753FC801B41F288339842F3D955
:101B8C000320D6E7D36923F08053D361BAE7002052
:101B9C00CFE700BF001002400070004040044242FA
:101BAC0030B587B00546384C94E80F000DF1180E8F
:101BBC000EE90F00238AADF80430022D53D0102DFE
:101BCC0003D0012D2BD0002057E0304B5A681B68F6
:101BDC0013F0807F53D0C2F3834306A90B4413F850
:101BEC00100C12F4803F16D0284B5B68C3F34043B3
:101BFC000B4413F8142C264BB3FBF2F303FB00F04D
:101C0C00224B5B6813F4800F37D14000214BA3FBB0
:101C1C000030400831E0204B03FB00F0F0E71B4B99
:101C2C001B6A40F202321A40B2F5817F29D003F4CC
:101C3C004073B3F5007F04D0B3F5407F09D000208A
:101C4C001BE0124A526A12F0020FF5D049F64040DE
:101C5C0013E00E4B1B6813F4003F02D04FF22440EC
:101C6C000BE0002009E0FFF701FF084B5B68C3F3B2
:101C7C00813301335B00B0FBF3F007B030BD0020C3
:101C8C00FBE74FF40040F8E7B850000800100240A2
:101C9C0000127A00ABAAAAAA00093D00F0B583B0E5
:101CAC000026344671E0002D00F0A280012D00D1F9
:101CBC00CE68FF2B00F2B0808646FF2B00F2AF807F
:101CCC00A500DEF800200F27AF4022EA070206FA33
:101CDC0005F52A43CEF800204A6812F0805F53D0F5
:101CEC00644A956945F001059561926902F001021B
:101CFC000192019AA508AF1C5F4A52F8272004F004
:101D0C000307BF004FF00F0E0EFA07FE22EA0E0279
:101D1C00DFF874E1704500F089800EF5806E704537
:101D2C0000F087800EF5806E704500F085800EF512
:101D3C00806E704577D04FF0040E0EFA07F73A43D9
:101D4C0002354D4F47F825204A6812F4803F76D073
:101D5C004A4D2A681A432A604A6812F4003F74D02C
:101D6C00464D6A681A436A604A6812F4801F72D042
:101D7C00424DAA681A43AA604A6812F4001F70D038
:101D8C003E4DEA681343EB6001340B6833FA04F2FE
:101D9C006DD00122A24013409A42F5D14D68122D0C
:101DAC0030D00BD8022D2AD07FF67DAF032D2FD04B
:101DBC00112D7FF47EAFCE6804367AE7304FBD42EA
:101DCC0016D00CD92F4FBD4212D007F58037BD422B
:101DDC000ED0A7F58017BD427FF46BAF08E0A7F5D6
:101DEC008017BD4204D007F58037BD427FF461AF48
:101DFC008D687DB1012D08D04261082659E7CE6867
:101E0C00083656E7CE680C3653E70261082650E7D1
:101E1C0000264EE704264CE700F1040E4DE7A4F132
:101E2C000805AD004DE74FF0030E86E74FF0000EAE
:101E3C0083E74FF0010E80E74FF0020E7DE70F4D68
:101E4C002A6822EA03022A6086E70C4D6A6822EAB5
:101E5C0003026A6088E7094DAA6822EA0302AA60B5
:101E6C008AE7064DEA6822EA0303EB608CE703B0CD
:101E7C00F0BD00BF00100240000001400004014012
:101E8C0000002110000031100008014012B90904B3
:101E9C000161704701617047C3680B4201D1016158
:101EAC007047416170470000074AD36823F4E06330
:101EBC001B041B0C000200F4E060184340F0BF60F0
:101ECC0040F40030D060704700ED00E030B4164BA9
:101EDC00DB68C3F30223C3F10704042C28BF0424DA
:101EEC001D1D062D17D9033B012505FA04F4013CF1
:101EFC002140994005FA03F3013B13401943002894
:101F0C000BDB0901C9B200F1604000F5614080F8BB
:101F1C00001330BC70470023E6E700F00F00090106
:101F2C00C9B2024B1954F4E700ED00E014ED00E0E7
:101F3C00002808DB420900F01F00012303FA00F01F
:101F4C00014B43F82200704700E100E00138B0F18A
:101F5C00807F0AD2064B5860F021064A82F8231083
:101F6C000020986007221A6070470120704700BF5C
:101F7C0010E000E000ED00E00122014B1A60704718
:101F8C0020000E420F4B1A6842F001021A60596889
:101F9C000D4A0A405A601A6822F0847222F4803288
:101FAC001A601A6822F480221A605A6822F4FE021F
:101FBC005A604FF41F029A604FF00062034B9A6014
:101FCC00704700BF001002400000FFF800ED00E079
:101FDC0000B585B000230193029303931048114A76
:101FEC00026083600122027303754FF46021C161AA
:101FFC004360026101F0D6FE60B900230193012217
:10200C000292039301A9064801F054FD28B905B0CA
:10201C005DF804FBFFF76AF8EFE7FFF767F8F6E700
:10202C00300400200028014000B587B00023029343
:10203C000393049305930268114B9A4202D007B0A4
:10204C005DF804FB03F568439A6942F480629A6177
:10205C009A6902F480620092009A9A6942F0040232
:10206C009A619B6903F004030193019B0123029382
:10207C000323039302A90348FFF710FEDFE700BF19
:10208C00002801400008014000B583B00023ADF8E2
:10209C0004308DF8063000931848194A02604FF04E
:1020AC00FF324260836002F0BFF8F0B900238DF874
:1020BC0004308DF805308DF80630012201A90F4847
:1020CC0001F0C9FFA0B901228DF800208DF8012084
:1020DC008DF8022000238DF803306946074802F082
:1020EC001BF840B903B05DF804FBFEF7FFFFDDE71A
:1020FC00FEF7FCFFE7E7FEF7F9FFF3E760040020CB
:10210C000028004002680C4B9A4200D0704700B582
:10211C0083B0FFF731FF094BDA6942F00062DA61F4
:10212C00DB6903F000630193019B0122044B1A60ED
:10213C0003B05DF804FB00BF002800400010024013
:10214C003C04424200B58DB02422002103A8FEF7C6
:10215C0051F80023019302931248134A0260102293
:10216C00426083604FF6FF72C2600361436183611A
:10217C000323039301230593099303A9FFF766F83F
:10218C0050B900230193029301A90648FFF7DEF82A
:10219C0028B90DB05DF804FBFEF7A8FFF1E7FEF7D8
:1021AC00A5FFF6E774040020002C014000B587B0B1
:1021BC00002302930393049305930268114B9A42F4
:1021CC0002D007B05DF804FB03F564439A6942F44E
:1021DC0000629A619A6902F400620092009A9A690C
:1021EC0042F004029A619B6903F004030193019B82
:1021FC0006A94FF4407341F8103D0348FFF74EFD1C
:10220C00DFE700BF002C01400008014008B50022A8
:10221C000F49104802F06AF870B90F490D4802F0E6
:10222C007CF860B90D490B4802F0BCFE50B9094866
:10223C0002F07AF848B908BDFEF758FFEDE7FEF753
:10224C0055FFEFE7FEF752FFF1E7FEF74FFFF2E71E
:10225C0070000020B4040020D0000020C00000203A
:10226C0012230B80004870478C00002004230B8045
:10227C0000487047A00000200023934216D230B4CF
:10228C000BE0373401F8134000015C0001340025E9
:10229C000D550133DBB2934206D2040F092CF0D852
:1022AC00303401F81340EFE730BC70477047000042
:1022BC0038B50A4B186804331C6804331B68C01803
:1022CC0000D138BD064D0822A91CFFF7D5FF04220A
:1022DC0005F112012046FFF7CFFFF2E7E8F7FF1FE9
:1022EC00A400002008B51A230B80FFF7E1FF01487A
:1022FC0008BD00BFA400002008B50A4628B1054956
:10230C00054802F0A5FC034808BD0249024802F04A
:10231C009FFCF8E7780700203451000810B5044CF6
:10232C000A462146034802F093FC204610BD00BF2C
:10233C00780700202051000808B50A4628B1054945
:10234C00054802F085FC034808BD0249024802F02A
:10235C007FFCF8E7780700200451000808B50A460E
:10236C0028B10549054802F073FC034808BD024931
:10237C00024802F06DFCF8E77807002010510008C5
:10238C00002070470020704710B5054C01462046D0
:10239C0002F017FE204602F034FE002010BD00BFF4
:1023AC00B404002010B5064C00220649204602F069
:1023BC0000FE0549204602F004FE002010BD00BFBF
:1023CC00B4040020600D002078090020094BD3F8DC
:1023DC00B832D3F814320BB10120704710B50A464D
:1023EC000146044C204602F0E4FD204602F0EFFDCD
:1023FC0010BD00BFB404002018B1022803D0022085
:10240C0070470020704701207047000002680E4B97
:10241C009A4200D0704700B583B003F5DA33DA691D
:10242C0042F40002DA61DB6903F400030193019BBF
:10243C00002211461420FFF749FD1420FFF778FD08
:10244C0003B05DF804FB00BF005C004008B500F56C
:10245C000C71D0F8680201F080FF08BD08B500EBE4
:10246C004113D3F83C21D0F8680201F0A3FF08BD5A
:10247C0008B500EB4113DA6BD0F8680201F0E4FF09
:10248C0008BD08B5D0F8680202F087F808BD10B591
:10249C0004468368022B01D0FEF728FE0121D4F8F4
:1024AC00680202F063F8D4F8680202F037F810BD45
:1024BC0010B50446D0F8680202F05BF8A36923B1AA
:1024CC00024A136943F00603136110BD00ED00E0EE
:1024DC0008B5D0F8680202F055F808BD10B50446EE
:1024EC001D48C0F86842C4F8C0021C4B03600823A6
:1024FC0043600223836000238361C361036200F0A5
:10250C0091F830BB182300221146D4F8C00200F019
:10251C00C5FC582300228021D4F8C00200F0BEFC78
:10252C00C02300228121D4F8C00200F0B7FC4FF484
:10253C00887300220121D4F8C00200F0AFFC4FF4E4
:10254C00807300228221D4F8C00200F0A7FC002086
:10255C0010BDFEF7CBFDD5E748110020005C004014
:10256C0008B5D0F8C00200F0D7F8FFF745FF08BD5A
:10257C0010B51C4613462246D0F8C00200F0F7F8FE
:10258C00FFF73AFF10BD08B5D0F8C00200F027F9EC
:10259C00FFF732FF08BD08B5D0F8C00200F010FC00
:1025AC00FFF72AFF08BD08B5D0F8C00200F03FFCC9
:1025BC00FFF722FF08BDD0F8C02211F0800F06D122
:1025CC0001F07F0102EB411191F82A01704701F0F3
:1025DC007F0302EB431191F82A00704708B5D0F83D
:1025EC00C00200F0B0F8FFF707FF08BD08B5D0F83F
:1025FC00C00200F048F9FFF7FFFE08BD08B5D0F89F
:10260C00C00200F01AF9FFF7F7FE08BD08B5D0F8C4
:10261C00C00200F031F908BD0048704708020020E4
:10262C0070477047F0B587B0002873D0044690F817
:10263C002932D3B1032384F82932206800F056FCE8
:10264C00254655F8107B6E460FCD0FC62B683360B0
:10265C00231D0ECB384600F039FC58B1022384F808
:10266C0029320125284607B0F0BD80F82832FFF743
:10267C00CDFEDFE70021206800F042FC002311E0D2
:10268C0004EB4312012182F8291082F82830D386FA
:10269C00002182F82B109163D1639A1C5201A15036
:1026AC000133DBB260688342EAD3002312E004EB0F
:1026BC004311002281F8292181F8283181F82B213E
:1026CC00C1F83821C1F83C2103F10A0149016250DB
:1026DC000133DBB29842EAD8254655F8107B6E469A
:1026EC000FCD0FC62B683360231D0ECB384600F080
:1026FC0009FC054620B1022384F829320125B1E7F3
:10270C00002384F82430012384F82932206800F057
:10271C0037FFA7E70125A5E790F82832012B01D157
:10272C000220704710B50446012180F82812FFF7EB
:10273C0078FF206800F022FF206800F0CEFB00201C
:10274C0084F8280210BD90F82832012B01D1022008
:10275C00704710B50446012380F8283280F8241005
:10276C00006800F005FF002084F8280210BD70B549
:10277C0011F0800F19D101F007056D0105F5947466
:10278C0004440544002685F8296101F007012170F5
:10279C002261E370627802B1E181022B10D090F8D3
:1027AC002832012B0FD1022070BD01F007056D01FD
:1027BC0005F1280404440544012685F82960E4E762
:1027CC0000232371EBE70546012380F828322146CC
:1027DC00006800F0ADFB002085F8280270BD10B534
:1027EC0011F0800F12D101F007035B0103F5947215
:1027FC0002440344002483F8294101F007031370B9
:10280C0090F82832012B0CD1022010BD01F00703E7
:10281C005B0103F1280202440344012483F829409C
:10282C00EBE70446012380F828321146006800F0DB
:10283C003FFD002084F8280210BD70B501F007059B
:10284C006C0104F5947101440444C4F83C2105F175
:10285C000A025201861883500023736084F82931D0
:10286C0084F8285125B1006800F0A7FE002070BD47
:10287C00006800F0A2FEF9E701F007010A3100EB55
:10288C0041114868704770B501F007056C0104F1FF
:10289C00280101440444E263AA1C520186188350A7
:1028AC0000237360012384F8293084F8285025B163
:1028BC00006800F082FE002070BD006800F07DFE14
:1028CC00F9E7F8B50446ACE003889BB223F4E14386
:1028DC0023F070036FEA43436FEA53439BB20380C8
:1028EC002268B2F850309BB294F8281003EBC10365
:1028FC00023302EB4303B3F80034C3F309036364FC
:10290C00E26B1344E36300212046FFF7B1FD94F81A
:10291C002430002B00F08580236C002B40F081804C
:10292C00226894F8243043F08003A2F84C30002342
:10293C0084F8243075E0B0F850309BB294F828211C
:10294C0003EBC203063300EB4303B3F80034C3F3C9
:10295C000903C4F84431B4F82E2104F50C7100F0CD
:10296C00D4FF2268138823F070031B051B0D43F062
:10297C00800313802046FFF769FD52E03E2A09D8F8
:10298C00510812F0010F00D001318A0292B2A3F863
:10299C000C24A7E0510912F01F0F00D101396FEA86
:1029AC00C1626FEA524292B2A3F80C249AE030F85A
:1029BC002560B6B216F4004F40F0A38016F0800FDD
:1029CC002FD0226832F825309BB223F4E14323F058
:1029DC0070036FEA43436FEA53439BB222F82530EE
:1029EC002268B2F850309BB204EB451090F82810D6
:1029FC0003EBC103023302EB4303B3F80024C2F32D
:102A0C000902AB1C5B01E1184A60C16B0A44C2634A
:102A1C00E358002B40F00F8190F828102046FFF768
:102A2C0027FD2068B0F8443013F4004F00F00B8100
:102A3C00B0F844309BB213F00F05B8D113F0100F5F
:102A4C003FF442AF03889BB213F4006F7FF473AF73
:102A5C0013F4004FE5D0038823F070031B051B0D06
:102A6C0043F0800303802068B0F850309BB294F898
:102A7C00282103EBC203063300EB4303B3F8003405
:102A8C00C3F30903C4F844318BB1D4F83C1171B1D0
:102A9C00B4F82E2100F039FFD4F84421D4F83C319D
:102AAC001344C4F83C3100212046FFF7D7FC2268C0
:102ABC00B2F850309BB21344D4F83821002A7FF47A
:102ACC005DAFB3F80C2492B222F4F84292B2A3F8A0
:102ADC000C24B3F80C246FEA42426FEA524292B2D1
:102AEC00A3F80C24226813889BB223F4804323F0B0
:102AFC00700383F4405343F4004343F0800313808A
:102B0C008FE730F8253023F070031B051B0D43F0C5
:102B1C00800320F8253004EB451393F83431DBB9EE
:102B2C002068B0F850309BB204EB451292F8282183
:102B3C0003EBC203063300EB4303B3F80074C7F393
:102B4C00090797B304EB45113B46B1F82E21D1F898
:102B5C003C1100F0DAFE28E0206804EB451393F8F2
:102B6C00282130F8223013F4804F44D0B0F8503084
:102B7C009BB203EBC203023300EB4303B3F80074C4
:102B8C00C7F309076FBB226804EB451393F82811B0
:102B9C0032F821309BB223F4E04323F0700343F46A
:102BAC00004343F0C00322F8213005F10A035B0116
:102BBC00E1184A683A444A6004EB4511D1F83C21CB
:102BCC003A44C1F83C21E3581BB1D1F838118F427B
:102BDC0029D204EB451393F828112046FFF73EFC4D
:102BEC00ECE604EB45113B46B1F83021D1F83C1131
:102BFC0000F08BFEC7E7B0F850309BB203EBC2037A
:102C0C00063300EB4303B3F80074C7F30907002F36
:102C1C00B9D004EB45113B46B1F83221D1F83C1147
:102C2C0000F073FEAFE704EB451191F82811204634
:102C3C00FFF703FEC2E604EB451595F82810204675
:102C4C00FFF721FEEDE60020F8BD10B50446006844
:102C5C0000F098FC10F4004F45D1206800F092FC75
:102C6C0010F4806F43D1206800F08CFC10F4804F7E
:102C7C0008D02268B2F844309BB223F480439BB254
:102C8C00A2F84430206800F07DFC10F4005F08D0FE
:102C9C002268B2F844309BB223F400539BB2A2F8E2
:102CAC004430206800F06EFC10F4805F30D1206856
:102CBC0000F068FC10F4006F49D1206800F062FC51
:102CCC0010F4007F6FD1206800F05CFC10F4807F62
:102CDC0008D02268B2F844309BB223F480739BB2C4
:102CEC00A2F8443010BD2046FFF7EBFDB5E7226893
:102CFC00B2F844309BB223F480639BB2A2F8443008
:102D0C002046FFF7C4FB00212046FFF71CFDAAE775
:102D1C002268B2F840309BB223F004039BB2A2F8B5
:102D2C0040302268B2F840309BB223F008039BB2CB
:102D3C00A2F840302046FFF7CBFB2268B2F84430B3
:102D4C009BB223F480539BB2A2F84430AFE72268C5
:102D5C00B2F840309BB243F00803A2F8403022682E
:102D6C00B2F844309BB223F400639BB2A2F8443017
:102D7C002268B2F840309BB243F00403A2F8403012
:102D8C00206800F0FFFB10F4805F08D02268B2F8D6
:102D9C0044309BB223F480539BB2A2F844302046BB
:102DAC00FFF786FB89E72268B2F844309BB223F424
:102DBC0000739BB2A2F844302046FFF762FB82E717
:102DCC0038B501F0070543689D422ED811F0800FED
:102DDC0010D14B0103F5947101440344002283F894
:102DEC00292101238B700D7090F82832012B0AD108
:102DFC00022038BD6B0103F1280101440344012278
:102E0C0083F82920EDE70446012380F82832006876
:102E1C0000F038FB1DB1002084F8280238BD04F501
:102E2C000C71206800F0B2FBF5E7012038BD01F011
:102E3C000F0243689A422FD810B511F0800F14D1AD
:102E4C0001F007035B0103F5947202440344002470
:102E5C0083F829410023937001F00703137090F855
:102E6C002832012B0CD1022010BD01F007035B01AD
:102E7C0003F1280202440344012483F82940E9E7C2
:102E8C000446012380F828321146006800F01FFB2D
:102E9C00002084F8280210BD0120704711F0800F2B
:102EAC000CD001F007014901283101445AB101222B
:102EBC000A730B811B0C4B8100207047490101F5F3
:102ECC0094710144F2E70A73CB80F5E784B001A852
:102EDC0080E80E00002004B07047B0F840309BB280
:102EEC0043F43F43A0F8403000207047B0F8403026
:102EFC0023F47C535B045B0CA0F84030002070473B
:102F0C000020704784B038B505AC84E80E0001236E
:102F1C00A0F840300024A0F84040A0F84440A0F8AD
:102F2C005040FFF7DAFF2046BDE8384004B0704748
:102F3C0030B403460C7830F8242092B222F4EC42E0
:102F4C0022F0700292B2C87803285CD8DFE800F057
:102F5C004F570253002048F280052A4323F82420BF
:102F6C000C7833F8242092B222F4E04222F0700262
:102F7C0022432A4323F824200A7B002A40F0B980FC
:102F8C004A78002A50D0B3F8502092B21A440C78E8
:102F9C0002EB0412CC8824F00104A4B2A2F8004481
:102FAC000C7833F8242012F0400F0CD033F8242086
:102FBC0092B222F4E04222F0700242F4004242F05B
:102FCC00C00223F82420CA78012A1ED0097833F8CD
:102FDC00212092B222F4E04222F0400282F0200240
:102FEC0042F4004242F0800223F8212066E042F4D1
:102FFC0000720020AFE742F4C0620020ABE742F45D
:10300C0080620020A7E70120A5E7097833F821208A
:10301C0092B222F4E04222F0400242F4004242F02A
:10302C00800223F8212049E0B3F8502092B21A44D0
:10303C000C7802EB0412CC8824F00104A4B2A2F8A0
:10304C000844B3F8502092B21A440C7802EB0412E4
:10305C000C69ACBBB2F80C44A4B224F4F844A4B28E
:10306C00A2F80C44B2F80C446FEA44446FEA54449E
:10307C00A4B2A2F80C440C7833F8242012F4804F3C
:10308C000CD033F8242092B222F4E04222F07002E9
:10309C0042F4404242F0800223F82420097833F8AD
:1030AC00212092B222F4804222F0700282F440522B
:1030BC0042F4004242F0800223F8212030BC7047D9
:1030CC003E2C09D8650814F0010F00D00135AD0273
:1030DC00ADB2A2F80C54CEE7650914F01F0F00D165
:1030EC00013D6FEAC5646FEA5444A4B2A2F80C44E3
:1030FC00C1E70C7833F8242092B222F4E04222F09B
:10310C00700242F4014242F0800223F82420B3F80A
:10311C00502092B21A440C7802EB04120C8924F061
:10312C000104A4B2A2F80044B3F8502092B21A449D
:10313C000C7802EB04124C8924F00104A4B2A2F81E
:10314C0008444A78002A4ED10C7833F8242012F423
:10315C00804F0CD033F8242092B222F4E04222F0BB
:10316C00700242F4404242F0800223F824200C7892
:10317C0033F8242012F0400F0CD033F8242092B2F4
:10318C0022F4E04222F0700242F4004242F0C0020B
:10319C0023F824200C7833F8242092B222F4E04255
:1031AC0022F0700242F4004242F0C00223F82420C4
:1031BC000D7833F8252092B222F4804222F070026E
:1031CC0082F4405248F28004224323F825200978E7
:1031DC0033F8212092B222F4E04222F04002224342
:1031EC0023F821206AE70C7833F8242012F4804F5E
:1031FC000CD033F8242092B222F4E04222F0700278
:10320C0042F4404242F0800223F824200C7833F838
:10321C00242012F0400F0CD033F8242092B222F468
:10322C00E04222F0700242F4004242F0C00223F865
:10323C0024200C7833F8242092B222F4E04222F0BD
:10324C00700242F4404242F0800223F82420CA78F3
:10325C00012A1ED00C7833F8242092B222F4E042DA
:10326C0022F0400282F0200242F4004242F080023E
:10327C0023F82420097833F8212092B222F48042DA
:10328C0022F0700242F4004242F0800223F8212026
:10329C0014E70C7833F8242092B222F4E04222F0A6
:1032AC00400242F4004242F0800223F82420E1E77D
:1032BC000B7B002B46D14B7813B30A7830F82230B5
:1032CC0013F0400F0CD030F822309BB223F4E043C3
:1032DC0023F0700343F4004343F0C00320F8223082
:1032EC000A7830F822309BB223F4E04323F04003F9
:1032FC0043F4004343F0800320F822300020704751
:10330C000A7830F8223013F4804F0CD030F8223089
:10331C009BB223F4E04323F0700343F4404343F0A7
:10332C00800320F822300A7830F822309BB223F444
:10333C00804323F0700343F4004343F0800320F8F0
:10334C002230DBE710B44B78002B4ED10A7830F8E2
:10335C00223013F4804F0CD030F822309BB223F47F
:10336C00E04323F0700343F4404343F0800320F820
:10337C0022300A7830F8223013F0400F0CD030F89D
:10338C0022309BB223F4E04323F0700343F4004358
:10339C0043F0C00320F822300A7830F822309BB278
:1033AC0023F4E04323F0700343F4004343F0C003E1
:1033BC0020F822300B7830F8232092B222F480428D
:1033CC0022F0700248F28004224320F823200A786D
:1033DC0030F822309BB223F4E04323F04003234324
:1033EC0020F82230002010BC70470A7830F82230C8
:1033FC0013F4804F0CD030F822309BB223F4E0430E
:10340C0023F0700343F4404343F0800320F8223050
:10341C000A7830F8223013F0400F0CD030F82230FC
:10342C009BB223F4E04323F0700343F4004343F0D6
:10343C00C00320F822300A7830F822309BB223F4F3
:10344C00E04323F0700343F4404343F0800320F83F
:10345C0022300B7830F8232092B222F4E04222F092
:10346C00400248F28004224320F823200A7830F8E6
:10347C0022309BB223F4804323F07003234320F8C3
:10348C002230AFE74B788BB90A7830F822309BB2F8
:10349C0023F4804323F0700383F4805343F40043FC
:1034AC0043F0800320F82230002070470A7830F86F
:1034BC0022309BB223F4E04323F0400383F010034B
:1034CC0043F4004343F0800320F82230ECE70B7BFD
:1034DC00002B4BD14B7833B30A7830F8223013F0F1
:1034EC00400F0CD030F822309BB223F4E04323F091
:1034FC00700343F4004343F0C00320F82230CB7830
:10350C00012B33D00A7830F822309BB223F4E043FD
:10351C0023F0400383F0200343F4004343F0800383
:10352C0020F8223022E00A7830F8223013F4804F51
:10353C000CD030F822309BB223F4E04323F070031C
:10354C0043F4404343F0800320F822300A7830F8EB
:10355C0022309BB223F4804323F0700383F4405356
:10356C0043F4004343F0800320F8223000207047DE
:10357C0011B98023A0F84C30002070470020704710
:10358C0000207047B0F8440080B2704700207047AC
:10359C0001335B0800EB420202F5806263B110B4A8
:1035AC000C78487844EA002422F8044B0231013BA1
:1035BC00002BF5D110BC7047704770B54C78012CBE
:1035CC0037D08A690B699A4240F20B81D21A8A6110
:1035DC000A7B002A40F02281B0F8502092B20244BB
:1035EC000C7802EB0412002B40F0FF80B2F80C3484
:1035FC009BB223F4F8439BB2A2F80C34B2F80C340F
:10360C006FEA43436FEA53439BB2A2F80C340A7837
:10361C0030F822309BB223F4804323F0700383F400
:10362C00405343F4004343F0800320F82230002041
:10363C0070BD8A690B699A4226D9D21A8A610E46E4
:10364C0005460A7B22B30A7830F8221011F0400F9D
:10365C0078D0002C45D1B0F8501089B2014401EB60
:10366C0002122BBBB2F80C1489B221F4F84189B2C6
:10367C00A2F80C14B2F80C146FEA41416FEA5141F4
:10368C0089B2A2F80C1435E000238B611346D6E7FF
:10369C009CB22346CA884969FFF77AFFB5F85030C7
:1036AC009BB22B44327803EB0213A3F8044438E0AA
:1036BC003E2B09D8590813F0010F00D001318902B3
:1036CC0089B2A2F80C1415E0590913F01F0F00D1A0
:1036DC0001396FEAC1616FEA514189B2A2F80C1449
:1036EC0008E0B0F8501089B2014401EB021299B213
:1036FC00A2F80C1472899BB271692846FFF748FF37
:10370C007378002B5CD1327835F822309BB223F4DD
:10371C00E04323F0700343F4004343F0C00325F867
:10372C002230327835F822309BB223F4E04323F078
:10373C00400383F0300343F4004343F0800325F847
:10374C00223074E78CBBB0F8501089B2014401EB05
:10375C0002128BB9B2F8041489B221F4F84189B27F
:10376C00A2F80414B2F804146FEA41416FEA514113
:10377C0089B2A2F8041421E03E2B09D8590813F0A1
:10378C00010F00D00131890289B2A2F8041415E0AE
:10379C00590913F01F0F00D101396FEAC1616FEAAB
:1037AC00514189B2A2F8041408E0B0F8501089B263
:1037BC00014401EB021299B2A2F8041432899AE77F
:1037CC00012BAED1327835F822309BB223F4E04392
:1037DC0023F0700343F4404343F0800325F8223078
:1037EC009FE700238B611346F2E63E2B09D85C0859
:1037FC0013F0010F00D00134A402A4B2A2F80C44BF
:10380C0005E75C0913F01F0F00D1013C6FEAC4649B
:10381C006FEA5444A4B2A2F80C44F8E6C4B9B0F868
:10382C00502092B202440C7802EB04126BBBB2F83B
:10383C000444A4B224F4F844A4B2A2F80444B2F8A8
:10384C0004446FEA44446FEA5444A4B2A2F804441A
:10385C004A78002A4BD1B0F8502092B202440C782E
:10386C0002EB041253BBB2F80C349BB223F4F843B2
:10387C009BB2A2F80C34B2F80C346FEA43436FEAF3
:10388C0053439BB2A2F80C34C1E63E2B09D85C081A
:10389C0013F0010F00D00134A402A4B2A2F8044426
:1038AC00D6E75C0913F01F0F00D1013C6FEAC4642A
:1038BC006FEA5444A4B2A2F80444C9E73E2B09D8D9
:1038CC005C0813F0010F00D00134A402A4B2A2F8DA
:1038DC000C449CE65C0913F01F0F00D1013C6FEA0D
:1038EC00C4636FEA53439BB2A2F80C348FE6012AEF
:1038FC007FF48DAEB0F8502092B202440C7802EBFB
:10390C0004129BB2A2F80C3481E630B45D0800EBD3
:10391C00420202F5806207E032F8044BA4B20C704C
:10392C00240A4C700231013D002DF5D113F0010F2A
:10393C0001D013880B7030BC70470000F0B583B019
:10394C0005460C4600230193FDF768FD2B689A6829
:10395C0012F4807F23D106465A6812F4807F03D17B
:10396C00DB6A13F4700F24D04B4B1F680220FEF758
:10397C0017F9B7FBF0F72B681969484A11422FD198
:10398C00D96802F15C4211422AD11969444A1142A8
:10399C0039D1DA68434B1A4237D029203AE0AB6A66
:1039AC0043F02003AB62002385F82430012003B0E0
:1039BC00F0BD2B681B6813F0020F48D1B4F1FF3F28
:1039CC00F7D024B1FDF72AFD801B8442F1D2AB6AFB
:1039DC0043F00403AB62002385F824300320E6E7B0
:1039EC0019692F4A114204D1D96802F16E42114271
:1039FC000DD019692C4A0A405AB9DA682A4B13407F
:103A0C005BB1FC2006E0292004E0142002E05420E5
:103A1C0000E0FC2007FB00F704E05420FAE7019BD0
:103A2C0001330193019B9F4211D9B4F1FF3FF6D0B2
:103A3C0024B1FDF7F3FC801B8442F0D2AB6A43F057
:103A4C000403AB62002385F824300320AFE72B6816
:103A5C006FF012021A60AB6A43F40073AB622B680E
:103A6C009B6803F46023B3F5602F01D000209EE720
:103A7C002B7B6BB9AB6A23F48073AB62AB6A13F428
:103A8C00805F07D1AB6A43F00103AB6200208EE785
:103A9C0000208CE700208AE76C0000202449922447
:103AAC009224491292244900499224000368D86C4C
:103ABC007047000030B482B00023019390F824309A
:103ACC00012B00F08B800246012380F824304B68D8
:103ADC00062B29D80568686B03EB8303053B1F2471
:103AEC009C4020EA04000C6804FA03F303436B6364
:103AFC000B68092B38D91568E86803EB43031E3BA8
:103B0C0007249C4020EA04008C6804FA03F3034366
:103B1C00EB600B68103B012B34D90020002382F89A
:103B2C00243002B030BC70470C2B0ED80568286BC3
:103B3C0003EB8303233B1F249C4020EA04000C6806
:103B4C0004FA03F303432B63D2E70568E86A03EB3B
:103B5C008303413B1F249C4020EA04000C6804FAB8
:103B6C0003F30343EB62C3E71568286903EB4303D4
:103B7C0007249C4020EA04008C6804FA03F30343F6
:103B8C002B61C6E713681648834205D0936A43F04D
:103B9C00200393620120C1E7986810F4000F1BD139
:103BAC00986840F4000098600B68102B01D000203E
:103BBC00B4E70C4B1B680C49A1FB03139B0C03EBE8
:103BCC0083035900019102E0019B013B0193019B8E
:103BDC00002BF9D10020A1E700209FE70220A0E7ED
:103BEC00002401406C00002083DE1B4330B583B001
:103BFC000023019303689A6812F0010F2ED19A6882
:103C0C0042F001029A60174B1B68174AA2FB032370
:103C1C009B0C019302E0019B013B0193019B002B48
:103C2C00F9D10446FDF7FAFB054623689B6813F0AF
:103C3C00010F11D1FDF7F2FB401B0228F5D9A36A45
:103C4C0043F01003A362E36A43F00103E362002331
:103C5C0084F82430012002E0002000E0002003B0B2
:103C6C0030BD00BF6C00002083DE1B4390F8243075
:103C7C00012B02D102231846704710B504460123CC
:103C8C0080F82430FFF7B2FF034600285BD1A26A0C
:103C9C0022F4407222F0010242F48072A262226885
:103CAC002B498A4227D0A16A21F48011A162516864
:103CBC0011F4806F05D0A16A21F4405141F4805178
:103CCC00A162A16A11F4805F2BD0E16A21F0060198
:103CDC00E162002184F824106FF002011160226867
:103CEC00916801F46021B1F5602F1DD0916841F409
:103CFC00801191602AE0A1F58061496811F4702F60
:103D0C00D1D0A16A41F48011A1621249496811F421
:103D1C00806FD6D0A16A21F4405141F48051A16248
:103D2C00CFE70021E162D4E709498A4204D09168C7
:103D3C0041F4A001916009E0A1F58061496811F49A
:103D4C00702FD3D1F3E7002284F82420184610BD3D
:103D5C00002801400024014038B503689A6812F02D
:103D6C00010F01D1002038BD04469A6822F00102EF
:103D7C009A60FDF753FB054623689B6813F0010F0F
:103D8C000ED0FDF74BFB401B0228F5D9A36A43F07C
:103D9C001003A362E36A43F00103E362012038BD20
:103DAC00002038BD00287FD038B50446836A002B2C
:103DBC004AD02046FFF7D0FFA36A13F010036DD151
:103DCC0000286BD1A26A22F4885222F0020242F03F
:103DDC000202A2626268E1690A43257B42EA45025B
:103DEC00A168B1F5807F38D0012933D0217D01291C
:103DFC0036D02568696821F469410B436B602168F2
:103E0C008D682A4B2B4013438B60A368B3F5807FDE
:103E1C0037D0012B35D000232568E96A21F47001D5
:103E2C000B43EB6223689968214B0B409A422CD0D0
:103E3C00A36A23F0120343F01003A362E36A43F076
:103E4C000103E362012038BDC36280F82430FEF721
:103E5C00EBF8AEE74FF48073C8E74FF48073C5E717
:103E6C0035B9A169013943EA413343F40063C0E732
:103E7C00A16A41F02001A162E16A41F00101E16215
:103E8C00B7E72369013B1B05C6E70023E362A36A7E
:103E9C0023F0030343F00103A36238BDA36A43F08C
:103EAC001003A362012038BD01207047FDF7E1FF2C
:103EBC00FE0E1FFF30B402689469A5B2D3699169F4
:103ECC0088B2854205D0D06980B240EA014030BC4E
:103EDC00704798B240EA0440F9E70368186A5B6AD5
:103EEC009BB243EA00407047030903EB83035A007B
:103EFC0000F00F001044C0B27047000010B400F581
:103F0C00FA64022920D901EB4103C1EBC3011F4B19
:103F1C00A3FB011302EB5303234403EB94031C4A4E
:103F2C00A2FB0424A3EB541303EBD4130233194860
:103F3C00A0FB03201A1A00EB52008008C0EBC00053
:103F4C00181AC0B210BC704701EB4103C1EBC3019E
:103F5C000E4BA3FB013102EB5102A31800F2CF7000
:103F6C0003EB90030A4AA2FB0020A3EB501303EBD4
:103F7C00D01304330748A0FB03201A1A00EB52009D
:103F8C008008C0EBC000181ADBE700BF398EE3389D
:103F9C001F85EB512549922438B50446FDF73EFAAE
:103FAC00054623685A6812F0200F07D1FDF736FA40
:103FBC00401BB0F57A7FF4D9032038BD5A6842F023
:103FCC0010025A60002038BD38B5044602685368A8
:103FDC0023F010035360FDF721FA054623685B6854
:103FEC0013F0200F07D1FDF719FA401BB0F57A7FBB
:103FFC00F4D9032038BD002038BD38B505460C4631
:10400C00FFF7CAFF10B10123184638BD2B68220CEC
:10401C009A612B68A4B2DC612846FFF7D5FF0346F2
:10402C000028F1D00123EFE738B505460C46FFF721
:10403C00B3FF10B10123184638BD2B68220C1A624D
:10404C002B68A4B25C622846FFF7BEFF034600282B
:10405C00F1D00123EFE770B5002856D004460029B3
:10406C0055D0037C012B54D00E460123037402233C
:10407C004374B2B90D784B78C3EB03139A004FF429
:10408C00616303FB05258B781D4429462046FFF709
:10409C00B4FF0646C0B104236374002323740126C5
:1040AC0038E00878FFF720FF4FF4616505FB00F559
:1040BC007078FFF719FFC0EB001083001D44B07837
:1040CC00FFF712FF0544E0E72268536823F005036D
:1040DC0053602046FFF701FFB0F1FF3F01D085424E
:1040EC0004D8012363740023237413E000F5A83172
:1040FC0001F5C0712046FFF797FF0028F1D004238B
:10410C00637400232374012604E0012602E00126D7
:10411C0000E00226304670BD00285DD038B504465C
:10412C0000295BD0037C012B5AD00D46012303746C
:10413C0002234374D2B9CB78C3734B7843738B7817
:10414C008373A27B617BE07BFFF7D8FE2073287022
:10415C002046FFF7AFFE234BA3FB0023B3F5484FDC
:10416C0011D2012363740020207438BDC878FFF786
:10417C00BBFEE0736878FFF7B7FE6073A878FFF7B3
:10418C00B3FEA073DDE7184DA5FB00352D0C174BC6
:10419C0003FB150529462046FFF72FFF28B1042302
:1041AC00637400232374012038BD2046FFF795FE6D
:1041BC00B0F1FF3FD5D08542D3D900F5A83101F538
:1041CC00C0712046FFF730FF0028CAD00423637467
:1041DC0000232374012038BD01207047012038BD15
:1041EC00022038BDC5B3A29107452EC280510100F3
:1041FC00C0B138B504460268536823F00803536015
:10420C00FDF70CF9054623685B6813F0080F07D11E
:10421C00FDF704F9401BB0F57A7FF4D9032038BDC3
:10422C00002038BD0120704700285AD010B5044634
:10423C00437C53B1022363742046FFF7D9FF40B18E
:10424C00042363740123184610BD0374FDF75AFF51
:10425C00F0E72046FFF7A0FE002830D12268536813
:10426C0023F007035360A36823B11F4A136B23F099
:10427C00010313631C4AD36A23F46073A1680B43D4
:10428C00D3626068B0F1FF3F1DD02268936823F0C1
:10429C000F0343EA104393602268D3681B0C1B0482
:1042AC0080B20343D3602046FFF78EFE0346A0B9CD
:1042BC000022E27301226273A2736274C3E70423C7
:1042CC0063740123BFE70120FDF76AFC08B10138D4
:1042DC00DBE7042363740123B5E704236374012330
:1042EC00B1E7012318467047006C004098B108B53F
:1042FC000346D0F8B40210B10020C3F8B40209B1DF
:10430C00C3F8B0121846012380F89C320270FEF7F5
:10431C00E5F8002008BD0220704719B1C0F8B412AE
:10432C00002070470220704708B5FEF719F90020ED
:10433C0008BD08B5D0F8B43223B11B68984718B142
:10434C00022008BD022008BD002008BD08B5D0F829
:10435C00B4325B689847002008BD38B5044600F5B8
:10436C002A75284600F03BF90123C4F89432B4F8BE
:10437C00AE32C4F8983294F8A81201F01F03012B46
:10438C000ED03BB1022B10D001F080012046FEF77D
:10439C0002F903E02946204600F0EFFA002038BD70
:1043AC002946204600F01DFBF8E72946204600F080
:1043BC0048FBF3E738B50446A9BB1046D4F8943251
:1043CC00032B03D0052B25D0002038BDD4F8603149
:1043DC00D4F8642193420DD99B1AC4F860319A42E7
:1043EC0006D99AB20146204600F072FC002038BD76
:1043FC0092B2F7E7D4F8B4321B691BB194F89C2243
:10440C00032A04D0204600F06BFC002038BD204667
:10441C009847F7E70025C4F8945229462046FEF742
:10442C00BAF8284638BD0A46D0F8B4329B694BB16D
:10443C0090F89C12032901D0022038BD11469847F0
:10444C00002038BD022038BD10B50446002954D1D7
:10445C001046D4F89432022B0CD0042B00D01BB98C
:10446C0080212046FEF797F894F8A032012B40D01B
:10447C00002010BD236A626A93421BD8E169B1FB2C
:10448C00F2F302FB13132BB98A4203D8D4F89832F7
:10449C0099421DD3D4F8B432DB681BB194F89C223A
:1044AC00032A23D080212046FEF775F8204600F021
:1044BC0022FCD9E79A1A226292B20146204600F0F9
:1044CC00F0FB00231A4619462046FEF797F8CBE777
:1044DC0000221146204600F0E4FB0021C4F898129B
:1044EC000B460A462046FEF789F8BDE7204698475A
:1044FC00D8E7002084F8A00210BD0A46D0F8B432E8
:10450C005B694BB190F89C12032901D0022010BDBD
:10451C0011469847002010BD022010BD70B504460E
:10452C00402300221146FEF723F80125C4F8585108
:10453C004026C4F864613346002280212046FEF7F1
:10454C0017F8A561666284F89C520023C4F8943273
:10455C006360C4F8A432D4F8B8322BB1D4F8B432B6
:10456C005B68002120469847002070BD0174002034
:10457C00704790F89C3280F89D32042380F89C326E
:10458C000020704790F89C32042B01D0002070471B
:10459C0090F89D3280F89C32F8E708B590F89C3280
:1045AC00032B01D0002008BDD0F8B432DB69002BFE
:1045BC00F8D09847F6E7002302E00133DBB2013074
:1045CC000278002AF9D11846704708B54B88012BA0
:1045DC0000D008BDC0F8A43200F082FBF9E70B78DC
:1045EC0003704B7843708B78CA7803EB02234380BB
:1045FC000B794A7903EB022383808B79CA7903EB1D
:10460C000223C380704710B504468021FDF7C3FF19
:10461C0000212046FDF7BFFF10BD30B583B0054625
:10462C000C460023ADF806304A88130A013B062BD2
:10463C0000F2C280DFE803F0041A30C0C09EAE0066
:10464C00D0F8B0321B680DF10601007C98470023AE
:10465C0053B9BDF806201AB1E388002B40F0B280A4
:10466C00E388002B00F0B88003B030BD037C4BB95D
:10467C00D0F8B4329B6A0DF10600984702234370C0
:10468C000023E5E7D0F8B432DB6A0DF10600984759
:10469C00022343700023DBE7D2B2052A64D8DFE89B
:1046AC0002F0031323334353D0F8B0325B682BB1C1
:1046BC000DF10601007C98470023C9E72146FFF75E
:1046CC00A2FF01230020C3E7D0F8B0329B682BB1C6
:1046DC000DF10601007C98470023B9E72146FFF74E
:1046EC0092FF01230020B3E7D0F8B032DB682BB186
:1046FC000DF10601007C98470023A9E72146FFF73E
:10470C0082FF01230020A3E7D0F8B0321B692BB144
:10471C000DF10601007C9847002399E72146FFF72D
:10472C0072FF0123002093E7D0F8B0325B692BB104
:10473C000DF10601007C9847002389E72146FFF71D
:10474C0062FF0123002083E7D0F8B0329B692BB1C4
:10475C000DF10601007C9847002379E72146FFF70D
:10476C0052FF0123002073E72146FFF74CFF012382
:10477C0000206DE7037C3BB9D0F8B4325B6B0DF1D4
:10478C0006009847002363E72146FFF73CFF01230F
:10479C0000205DE7037C4BB9D0F8B4321B6B0DF1F4
:1047AC000600984707234370002351E72146FFF783
:1047BC002AFF012300204BE72146FFF724FF0123AA
:1047CC00002045E79A4228BF1A46ADF8062001465C
:1047DC00284600F059FA43E7284600F081FA43E7EF
:1047EC0038B504468B88F3B9CB88E3B94B887F2B5B
:1047FC0019D803F07F0590F89C32032B0CD080F86D
:10480C009E522946FDF7EAFE204600F069FA35B1C2
:10481C00022384F89C3238BDFFF7F5FE38BD012326
:10482C0084F89C3238BD2046FFF7EDFE38BD000001
:10483C0038B504460D468978284B197001290ED8D5
:10484C0090F89C32022B0ED0032B21D02946FFF777
:10485C00DAFE224B19782046FFF778FD38BD294641
:10486C00FFF7D1FE38BD81B14160032380F89C3243
:10487C00FFF75FFD022803D0204600F031FA38BD67
:10488C0029462046FFF7BFFE38BD00F029FA38BD97
:10489C0089B1436899421DD0D9B2FFF757FD0F4B30
:1048AC00197861602046FFF744FD02280DD02046A0
:1048BC0000F016FA38BD022380F89C324160FFF7F5
:1048CC0045FD204600F00CFA38BD29462046FFF77E
:1048DC009AFE38BD00F004FA38BD00BF2804002051
:1048EC0008B5CB88012B0BD190F89C329BB1022BD5
:1048FC0009D9032B0FD10122011D00F0C5F908BD08
:10490C00FFF781FE08BD0146002341F8083F012254
:10491C0000F0BAF908BDFFF776FE08BD08B590F8AF
:10492C009C32013B022B12D8CB88022B0CD10123D9
:10493C00C360D0F8A4320BB10323C360022200F190
:10494C000C0100F0A1F908BDFFF75DFE08BDFFF7F3
:10495C005AFE08BD08B590F89C32013B022B09D8D1
:10496C004B88012B00D008BD0023C0F8A43200F006
:10497C00B7F908BDFFF747FEF5E708B50B7803F06C
:10498C006003202B05D0402B03D043B1FFF73BFE37
:10499C0003E0D0F8B4329B689847002008BD4B78F0
:1049AC00092B1BD8DFE803F011171A141A08051A83
:1049BC000E0BFFF732FEF0E7FFF712FFEDE7FFF704
:1049CC0037FFEAE7FFF78CFFE7E7FFF7A7FFE4E71E
:1049DC00FFF7FBFDE1E7FFF7BDFFDEE7FFF713FE97
:1049EC00DBE738B505460C460B7803F06003202B4B
:1049FC0005D0402B03D013B1FFF705FE0BE095F863
:104A0C009C32013B022B17D82379012B05D9214667
:104A1C002846FFF7F8FD002038BDD5F8B4329B6866
:104A2C00214628469847E388002BF4D10028F2D180
:104A3C00284600F055F9EEE721462846FFF7E3FD3E
:104A4C00E9E738B504468A880B7803F06003202B1D
:104A5C0008D0D0B2402B05D05BB12046FFF7D3FD78
:104A6C00002038BDD4F8B4329B682046984700200B
:104A7C0038BD202B12D04B78012B38D0002B64D0B2
:104A8C00032B40F0DE8094F89C32022B0CD0032BCD
:104A9C001CD02046FFF7B7FD002038BDD4F8B43247
:104AAC009B682046984738BD58B1802809D00146EC
:104ABC002046FDF770FD80212046FDF76CFD00209F
:104ACC0038BD2046FFF79FFD002038BD4B8823B929
:104ADC0018B1802801D0CB8823B1204600F000F912
:104AEC00002038BD01462046FDF755FDF5E794F84A
:104AFC009C32022B06D0032B16D02046FFF783FDE9
:104B0C00002038BD58B1802809D001462046FDF759
:104B1C0042FD80212046FDF73EFD002038BD204699
:104B2C00FFF771FD002038BD4B88002B40F08E80C4
:104B3C0010F07F0F04D1204600F0D2F8002038BDD1
:104B4C0001462046FDF72FFDF5E794F89C32022B29
:104B5C0006D0032B2AD02046FFF755FD002038BD88
:104B6C0008B1802813D112F0800F15D100F07F000E
:104B7C0000EB8000830003F5A8712144043100256B
:104B8C000D600222204600F07FF8284638BD2046F2
:104B9C00FFF739FD002038BD00F07F0000EB8000EE
:104BAC00830003F1100121440431E8E752B2002ADA
:104BBC001EDB00F00F0303EB83039D002544D5F8A7
:104BCC0058311BB3002A26DB00F07F0202EB820275
:104BDC00930003F5A8752544043530B3802824D000
:104BEC0001462046FDF7E7FC40B301232B601EE095
:104BFC0000F00F0303EB83039D002544AB69002BEE
:104C0C00E0D12046FFF7FFFC002038BD2046FFF71F
:104C1C00FAFC002038BD00F07F0202EB8202930008
:104C2C0003F1100525440435D7E700232B6002223D
:104C3C002946204600F028F8002038BD00232B60C0
:104C4C00F5E72046FFF7DFFC002038BD002038BD1B
:104C5C00C8B170B50D4616460446FFF7ACFC0130E2
:104C6C0040003080287003236B70022307E05A1C2D
:104C7C00D2B20134E9540233DBB20021A9542178B9
:104C8C000029F4D170BD704710B513460222C0F84C
:104C9C009422C36103620A460021FDF7A7FC0020A1
:104CAC0010BD08B513460A460021FDF79FFC0020F5
:104CBC0008BD10B513460322C0F89422C0F85C312D
:104CCC00C0F860310A460021FDF798FC002010BDA9
:104CDC0008B513460A460021FDF790FC002008BDDC
:104CEC0008B50423C0F8943200231A461946FDF780
:104CFC007DFC002008BD08B50523C0F894320023C4
:104D0C001A461946FDF77AFC002008BD10B5D0F8FC
:104D1C00B842D0F8BC325BB194F80002FF2807D03F
:104D2C009B6894F8012221469847FF2384F80032AF
:104D3C00002010BD43230380004870470801002069
:104D4C0043230380004870474C0100204323038019
:104D5C00004870479C0100200A23038000487047DC
:104D6C009001002038B50446D0F8B852FDF74EFC3F
:104D7C00C5F80C02D4F8B8324BB1D4F8BC32DB68AD
:104D8C0005F50371D5F804029847002038BD0220C0
:104D9C0038BD38B5D0F8B822D0F8C052EAB101EB22
:104DAC008104A3000344DB693BB105EB4115AD6BFA
:104DBC00B3FBF5F405FB14331BB10020C2F814024D
:104DCC0038BD01EB8102930003440024DC612346CF
:104DDC002246FDF70BFC204638BD022038BD70B5CD
:104DEC0082B005460C46D0F8B86200238DF8073027
:104DFC00ADF804300B7813F0600227D0202A54D180
:104E0C00CA88DAB113F0800F0BD14B7886F80032D8
:104E1C008B7986F80132CA883146FFF74AFF0020A9
:104E2C0046E0D0F8BC329B68314660789847E288FF
:104E3C0031462846FFF728FF002039E0D0F8BC3275
:104E4C009B68002248789847002031E04B780A2B69
:104E5C0014D00B2B21D01BB1FFF7D5FB022027E080
:104E6C0090F89C32032B03D0FFF7CDFB02201FE000
:104E7C00022201A9FFF708FF002019E090F89C32EC
:104E8C00032B03D0FFF7BFFB022011E001220DF131
:104E9C000701FFF7F9FE00200AE090F89C32032B83
:104EAC0008D0FFF7B0FB022002E0FFF7ACFB0220BA
:104EBC0002B070BD0020FBE738B504468121FDF738
:104ECC0062FB0025E56201212046FDF75CFBC4F87E
:104EDC006C5182212046FDF756FB2564D4F8B8327C
:104EEC004BB1D4F8BC325B689847D4F8B802FDF7E4
:104EFC0097FBC4F8B852002038BD38B50446037C83
:104F0C00A3BB4FF4007302228121FDF731FB012575
:104F1C00E5624FF40073022229462046FDF728FB78
:104F2C00C4F86C510823032282212046FDF720FB94
:104F3C00012323644FF40770FDF76EFB0546C4F89C
:104F4C00B80268B3D4F8BC321B6898470023C5F884
:104F5C001432C5F81832237CC3B14023D5F804228F
:104F6C0001212046FDF74AFB002038BD40230222D8
:104F7C008121FDF7FDFA0125E56240230222294635
:104F8C002046FDF7F5FAC4F86C51CBE74FF40073EB
:104F9C00D5F8042201212046FDF730FB002038BD56
:104FAC00012038BD19B1C0F8BC1200207047022096
:104FBC007047D0F8B832C3F80812C3F8102200209A
:104FCC007047D0F8B832C3F8041200207047D0F8FC
:104FDC00B822A2B108B5D2F814320BB1012008BD29
:104FEC000123C2F81432D2F810320363B2F8103233
:104FFC00D2F808228121FDF7F9FA002008BD022021
:10500C007047D0F8B8229AB108B5037C3BB1402365
:10501C00D2F804220121FDF7F1FA002008BD4FF46B
:10502C000073D2F804220121FDF7E8FA002008BD34
:10503C0002207047002103E00B4B5B5843500431B6
:10504C000A480B4B42189A42F6D30A4A02E0002354
:10505C0042F8043B084B9A42F9D3FCF793FFFBF759
:10506C00A1F8FBF7E7FF70479451000800000020FF
:10507C00E0010020E0010020B8130020FEE7000052
:10508C00F8B500BFF8BC08BC9E467047F8B500BF29
:08509C00F8BC08BC9E467047F9
:1050A40002030405060708090A0B0C0D0E0F101065
:1050B4000102000002030405060708090A0B0C0D8F
:1050C4000E0F10100102000048656C6C6F20576FC2
:1050D400726C640A0D000000456E636F6465723A79
:1050E4002025640A0D0000000000000000000000FC
:1050F400010203040607080900000000010203047A
:1051040043444320436F6E66696700004344432071
:10511400496E7465726661636500000053544D699D
:1051240063726F656C656374726F6E69637300009C
:1051340053544D3332205669727475616C20436F39
:105144006D506F727400000043000000232D302B5B
:1051540020000000686C4C00656667454647000007
:105164003031323334353637383941424344454699
:10517400000000003031323334353637383961625B
:08518400636465660000000091
:04518C00790100089D
:0451900051010008C1
:1051940004000020000000000000000000000000E7
:1051A40000000000000000000000000000000000FB
:1051B400000000004C510008000000000000000046
:1051C40000000000000000000000000000000000DB
:1051D40000000000000000000000000000000000CB
:1051E40000000000000000000000000000000000BB
:1051F4000000000001000000100000000024F40082
:105204006D220008792200082923000805230008DC
:10521400F122000845230008692300081201000256
:10522400020200408304405700020102030100000F
:10523400040309041A030000000000000000000039
:10524400000000000000000000000000000000005A
:10525400B12300088D23000891230008952300083A
:10526400074F0008C54E0008EB4D00080000000081
:10527400194D00089F4D0008714D00080000000002
:1052840000000000000000004D4D0008414D0008E2
:10529400594D0008654D000809024300020100C091
:1052A4003209040000010202010005240010010576
:1052B40024010001042402020524060001070582DA
:1052C4000308001009040100020A00000007050198
:1052D400024000000705810240000000090243006B
:1052E400020100C032090400000102020100052489
:1052F4000010010524010001042402020524060013
:10530400010705820308001009040100020A0000D5
:1053140000070501020002000705810200020000E7
:105324000A060002000000400100000009074300D3
:10533400020104C032090400000102020100052434
:1053440000100105240100010424020205240600C2
:10535400010705820308001009040100020A000085
:10536400000705010240000007058102400000001B
:04000005080050415E
:00000001FF
